:020000040000FA
:100000000204538F1353130F8513147B007A007966
:0A001000147519017FDB1205EF22C1
:10001B0002056FD2857F017E001207157B007A00E7
:10002B0079007519007F011205EF7B007A007921A9
:10003B007519017F021205EF7B007A007922751981
:10004B00017F091205EF7B007A0079237519037F75
:10005B00101205EF7B007A0079267519037F1212B7
:10006B0005EF7B007A0079297519017F131205EFD3
:10007B007B007A00792A7519017F141205EF7B003A
:10008B007A00792B7519017F161205EF7B007A0028
:10009B00792C7519017F171205EF7B007A00792DEA
:1000AB007519017F181205EF7B007A00792E7519EF
:1000BB00017F1A1205EF7B007A00792F7519017FEA
:1000CB001C1205EF7B007A0079307519017F1D1228
:1000DB0005EF7B007A0079317519047F301205EF3B
:1000EB007B007A0079357519027F321205EF7B00A0
:1000FB007A0079377519017F341205EF7B007A008E
:10010B0079387519017F351205EF7B007A00793943
:10011B007519017F361205EF7B007A00793A751954
:10012B00017F371205EF7B007A00793B7519027F4F
:10013B00381205EF7B007A00793D7519017F391272
:10014B0005EF7B007A00793E7519017F481205EFA8
:10015B007B007A00793F7519017FD01205EF7B0088
:10016B007A0079407519017FD21205EF7B007A0076
:10017B0079417519017FD91205EF7B007A0079421D
:10018B007519017FDB1205EF7B007A007943751936
:10019B00017FDD1205EF7B007A0079447519017F31
:1001AB00E01205EF7B007A0079457519017FE212A9
:1001BB0005EF7B007A0079467519017FE31205EF95
:1001CB007B007A0079477519027FE41205EF7B00FB
:1001DB007A0079497519017FE51205EF7B007A00EA
:1001EB00794A7519017FE61205EF7B007A00794B8E
:1001FB007519017FE71205EF7B007A00794C7519B1
:10020B00017FFD1205EF7B007A0079007519007FE5
:10021B00201205EF7B007A00794D7519017FFD12D5
:10022B0005EF22A2A0B39204E50A12036202480072
:10023B0002610102860202AF030000030C300103CE
:10024B0002030C20040302030C750A01AF12AE115A
:10025B0012073D02030C120815400302030C300475
:10026B0014750A02C3E5109512FFE50F9511FE12E6
:10027B00073D02030C750A0302030C30040302034F
:10028B000C120815500A050CE50C7002050B8008C2
:10029B00050EE50E7002050D750A03AF12AE1112B5
:1002AB00073D805D120815504620020BAF09AE08C2
:1002BB0012073DD202804AE50E6401450D7005120E
:1002CB0007F08018E50E6402450D70051206B0802C
:1002DB000BE50C6401450B70031206E5750A0075FE
:1002EB000D00750E00750B00750C00C202801230EC
:1002FB00040F30020C750A01AF12AE1112073DC28A
:10030B0002A204920122BB010CE58229F582E5834E
:10031B003AF583E0225006E92582F8E622BBFE0679
:10032B00E92582F8E222E58229F582E5833AF58315
:10033B00E49322EB9FF5F0EA9E42F0E99D42F0E850
:10034B009C45F022E8600FECC313FCED13FDEE139C
:10035B00FEEF13FFD8F122D083D082F8E493701212
:10036B00740193700DA3A393F8740193F5828883A2
:10037B00E4737402936860EFA3A3A380DFEC8EF0A9
:10038B00A4CCC5F0CCCDF8EFA4CEC5F02DFDE43C4C
:10039B00FCE8A42EC8C5F03DFDE43CFCEFA4FFE552
:1003AB00F028FEE43DFDE43CFC22010A00020D00B6
:1003BB0000020B0000C101C1020211000A02080178
:1003CB002C020F03E8C100C103012100012200032D
:1003DB00230600000326420000012900012A010127
:1003EB002B00012C00012D07012E02012F000130E3
:1003FB000004310010010F0235002F0137010138C5
:10040B0010013900013A2F023B0000013D00013E73
:10041B0003013F8001400001410001420F0143886D
:10042B0001441001450101460002473F3F014907C6
:10043B00014A07014B07014C10014D00014E00C151
:10044B0086041B000000000012080D787FE4F6D82C
:10045B00FD75814E02049D0207B3E493A3F8E49368
:10046B00A34003F68001F208DFF48029E493A3F89C
:10047B005407240CC8C333C4540F4420C88340040E
:10048B00F456800146F6DFE4800B010204081020CD
:10049B0040809003B5E47E019360BCA3FF543F30D2
:1004AB00E509541FFEE493A360010ECF54C025E071
:1004BB0060A840B8E493A3FAE493A3F8E493A3C829
:1004CB00C582C8CAC583CAF0A3C8C582C8CAC583BA
:1004DB00CADFE9DEE780BE7FFF7EFF7D007C00ABDD
:1004EB001EAA1DA91CA81BD312033E4020758D000C
:1004FB00758B00C3E51E9400F51EE51D9400F51DDC
:10050B00E51C9401F51CE51B9400F51B22C3E49537
:10051B001EFFE4951DFE7401951CFDE4951BFC78F4
:10052B000812034F8F8DC3E4951EFFE4951DFE74D7
:10053B0001951CFDE4951BFCEF54FFFFEE5400FEF0
:10054B00ED5400FDEC5400FC8F8BC3E51E951EF59E
:10055B001EE51D951DF51DE51C951CF51CE51B9554
:10056B001BF51B22C0E0C0F0C083C082C0D075D089
:10057B0000C000C001C002C003C004C005C006C05B
:10058B0007E51F120362059B0005A101000005D4BE
:10059B00C28ED20680337F007E007D007C00AB1EB6
:1005AB00AA1DA91CA81BC312033E60031204E27F01
:1005BB00007E007D007C00AB1EAA1DA91CA81BC3DE
:1005CB0012033E7004C28ED206D007D006D005D0DF
:1005DB0004D003D002D001D000D0D0D082D083D0B1
:1005EB00F0D0E0328F158B168A178918C2FA7B0070
:1005FB007A007900C003C002C001AB16AA17A91874
:10060B00D082D083D0E06B7008E965827003EA6515
:10061B0083700EC2848515A330FFFDC2FFD2848088
:10062B0032C2848515A330FFFDC2FFD284751A0038
:10063B00E51AC39519501CAB16AA17A918AF1A8F38
:10064B0082758300120311FF8FA330FFFDC2FF05DC
:10065B001A80DDD2FA228B138A1489158C168D170A
:10066B00C2FAC28475A30830FFFDC2FFD28475188D
:10067B0000751900C3E5199517E51895165023ABAE
:10068B0013AA14A915AE18AF198F828E83120311FA
:10069B00FF8FA330FFFDC2FF0519E5197002051886
:1006AB0080D2D2FA2230003120031BC20512077F01
:1006BB007B007A0079007519007F081205EFD205CF
:1006CB00120799D20322C2051207997F107E2712B7
:1006DB000715D20512077FC2032220001F12001E2E
:1006EB00C20512077F7BFF7A0879187D007C061202
:1006FB000661D205120799D200D2032230030312EE
:10070B0006B01207E4C200C203228E138F14751FAA
:10071B0000C206C3E49514F516E49513F515E5151B
:10072B00FF7E008F8DAF16EF54FFF58BD28E300608
:10073B00FD228E138F14751F01C206AE13AF147CEE
:10074B00037DE81203888F1E8E1D8D1C8C1B1204DB
:10075B00E2D28E22AF4EEF900E1893FF12000305DC
:10076B004EAF4E7E00C3EF9407EE6480948040033F
:10077B00754E00223005047F0180027F008F137BB2
:10078B00007A0079137519017F141205EF223005D9
:10079B00047F0180027F008F137B007A0079137531
:1007AB0019017F021205EF221207D575A3FF30FF47
:1007BB00FDC2FF12022E80FB2243A43DC285C284E0
:1007CB0043D43075E10275E240221208111208047D
:1007DB001207C41207FAD2AF22D2FAC2857F017E6A
:1007EB00001207152230030630000312075F227533
:1007FB00A17075F80D75A20522438910438E00D2A6
:10080B00AB2275D9002275B28322A20622FFFFFF0D
:10081B00FFFFFFFFFFFFFFFFFFFFFFFFFFFFFFFFDD
:10082B00FFFFFFFFFFFFFFFFFFFFFFFFFFFFFFFFCD
:10083B00FFFFFFFFFFFFFFFFFFFFFFFFFFFFFFFFBD
:10084B00FFFFFFFFFFFFFFFFFFFFFFFFFFFFFFFFAD
:100E0B00FFFFFFFFFFFFFFFFFFFFFFFFFF0E0A08C4
:040E1B0006040302C4
:00000001FF
